:020000040800F2
:1000000088040020D9010008F31100083511000808
:10001000F1110008E5020008E112000800000000EC
:100020000000000000000000000000003312000883
:10003000E702000800000000F51100083512000872
:10004000F3010008F3010008F3010008F3010008C0
:10005000F3010008F3010008F3010008F3010008B0
:10006000F3010008F3010008F3010008F3010008A0
:10007000F3010008F3010008F3010008F301000890
:10008000F3010008F3010008F3010008F301000880
:10009000F3010008F3010008F3010008F301000870
:1000A000F3010008F3010008F3010008F301000860
:1000B000F3010008F3010008F3010008F301000850
:1000C000F3010008F3010008F3010008F301000840
:1000D000F3010008F3010008F3010008F301000830
:1000E000F3010008F3010008F3010008F301000820
:1000F000F3010008F3010008F3010008F301000810
:10010000F3010008F3010008F3010008F3010008FF
:10011000F3010008F3010008F3010008F3010008EF
:10012000F3010008F3010008F3010008F3010008DF
:10013000F30100080000000000000000F3010008C7
:10014000F3010008F3010008F3010008F3010008BF
:10015000F3010008F3010008F3010008F3010008AF
:10016000F3010008F3010008F3010008F30100089F
:10017000F3010008F3010008F3010008000000008B
:1001800000000000F3010008000000000000000073
:10019000F30100080000000000000000F301000867
:1001A000000000000000000000000000F301000853
:1001B000F3010008F3010008F3010008F30100084F
:1001C000F3010008DFF80CD000F07AF8004800478F
:1001D000211300088804002006488047064800478D
:1001E000FEE7FEE7FEE7FEE7FEE7FEE7FEE7FEE7E7
:1001F000FEE7FEE7C5120008C50100082DE9F05F23
:100200000546002092469B46884606468146402485
:100210001BE0284641464746224600F041F8534637
:100220005A46C01A914110D311461846224600F092
:1002300028F82D1A67EB01084F46224601200021BD
:1002400000F01FF817EB00094E41201EA4F1010435
:10025000DFDC484631462A464346BDE8F09FD2B22D
:1002600001E000F8012B491EFBD270470022F6E79F
:1002700010B513460A4604461946FFF7F0FF20461C
:1002800010BD202A04DB203A00FA02F1002070475A
:100290009140C2F1200320FA03F3194390407047C4
:1002A000202A04DB203A21FA02F00021704721FACB
:1002B00002F3D040C2F12002914008431946704732
:1002C000064C074D06E0E06840F0010394E80700A3
:1002D00098471034AC42F6D3FFF778FF6813000854
:1002E00088130008FEE770472DE9F84F00224FF011
:1002F000010803254FF00F0E0B6808FA02F42340A3
:10030000A3426ED14E68012E05D0022E03D0112ECD
:1003100001D0122E12D186684FEA420C05FA0CF772
:10032000BE43CF6807FA0CF7374387604668A64399
:100330000C79C4F30014944034434460C6685700F9
:1003400005FA07FC8C6826EA0C06BC403443C460FE
:100350004C68022C01D0122C13D1D40800EB840479
:10036000A346D4F8209054074FEAD46A0EFA0AF64E
:1003700029EA06090E6906FA0AF646EA0906CBF8E2
:10038000206006680C7926EA0C0604F00304BC40E1
:10039000344304604C68E40060D5334C266846F46E
:1003A00080462660246822F0030604F4804400940A
:1003B0002E4C3444A446D4F808489607370F0EFA5A
:1003C00007F6B4432A4EB04201D100261FE0294E61
:1003D000B04201D101261AE0274EB04202D10226D6
:1003E00015E03BE0254EB04201D103260FE0244E3C
:1003F000B04201D104260AE0224EB04201D10526C6
:1004000005E0214EB04201D1062600E00726BE409D
:100410002643CCF808681D4E34684F689C43FF03A0
:1004200000D51C433460194E361D34684F689C4318
:10043000BF0300D51C433460144E083634684F683F
:100440009C43FF0200D51C433460104E0C363468C8
:100450004F689C43BF0200D51C433460521C102AD5
:10046000FFF44AAFBDE8F88F443802400030014045
:10047000000002400004024000080240000C02405C
:10048000001002400014024000180240003C0140ED
:100490000AB1816170470904FBE7000001488068E8
:1004A00070470000000000200B4810B5016841F4BF
:1004B00000710160016841F480610160016841F4EC
:1004C00080710160032000F061F8002000F006F860
:1004D00000F024F8002010BD003C024070B50D4D26
:1004E00004464FF47A712878B1FBF0F00A490968A4
:1004F000B1FBF0F000F00AFE48B9102C07D2002240
:100500002146501E00F022F800206C6070BD0120D2
:1005100070BD0000000000200C0000200A4808B553
:10052000016841F480410160006800F4804000905F
:100530000548001F016841F080510160006800F02B
:100540008050009008BD000044380240F0B40E4BCB
:100550001B680C46C3F30223C3F10705042D00D921
:100560000425191D072901D2002300E0DB1E012606
:1005700006FA05F1491E214099409E40761E16401C
:100580003143F0BC00F0ADBE0CED00E0064900F0D8
:10059000070208684FF6FF03184040EA0220034AAA
:1005A00010430860704700000CED00E00000FA0501
:1005B0002DE9F84F044600260078F84D3746C0076D
:1005C00008D02868A16B20F0C06008432860A06BA9
:1005D00000B901262078800708D52868E16B20F053
:1005E000C05008432860E06B00B90126207840071E
:1005F0000ED52868216B20F4401008432860206B3A
:10060000B0F5801F01D010B102E0012600E0012703
:10061000207800070ED52868616B20F4400008435D
:100620002860606BB0F5800F01D010B102E00126A8
:1006300000E0012720784FF0000A80064FF0010B00
:1006400063D5D6484C38016841F08051016000689C
:10065000DFF84C9300F080500090D9F8001041F47E
:100660008071C9F80010FFF719FF804606E000BF4F
:10067000FFF714FFA0EB080002286FD8D9F800009C
:10068000C005F5D5DFF81483A8F11C08D8F80000E0
:1006900010F4407024D0B4F8401001F4407181424D
:1006A0001ED0D8F80010BF4A21F44071C2F800B043
:1006B000C2F800A0C8F80010D8F80000C0070FD09A
:1006C000FFF7ECFE814607E0FFF7E8FEA0EB09012B
:1006D00041F288308142D0D8D8F800008007F3D5A5
:1006E000216CAE48C1F301228438032A37D0016857
:1006F00021F4F811C0F80010D8F80010B4F8402028
:10070000C2F30B021143C8F800102078C00604D5CC
:10071000A54894F85810C0F8E01120780106A348C5
:1007200005D50168E26C21F4400111430160217894
:10073000490605D50168A26C21F080611143016072
:100740002188C90514D50168626D21F0006111434B
:100750000160616DB1F1006F09D009E01DE102682F
:10076000934B22F4F81219400A430260C4E70127B0
:100770002188890505D50168626C21F080511143FB
:1007800001602188DFF82C92490509D50168226DA6
:1007900021F0005111430160206DB0F1005F04D0E1
:1007A0001EB92068B0F5006F7ED18349C1F868A0FA
:1007B000FFF774FE794E80468C3E05E0FFF76EFE33
:1007C000A0EB0800022886D830680001F6D4216822
:1007D0007A48CA0701D0A26B1AB1890717D5E16B15
:1007E000A9B901680268C1F30141491CD4E9013C7F
:1007F00043EA8C1321F0004CC2F3036209EB0C4175
:1008000041EA02610B43217D43EA017101602168E5
:100810004A0703D5226BB2F5801F05D0090721D501
:10082000616BB1F5800F1DD101680268C1F3014110
:10083000491CD4E9013C43EA8C1321F0004C09EB3C
:100840000C4194F810C0C2F3027241EA0C610B43F0
:1008500043EA027101602968A26A21F01F01521E59
:1008600011432960218849051AD5216DB1F1005F36
:1008700016D101680268C1F30141491CD4E9013C69
:1008800043EA8C13D4F80CC0C2F302724FEA5C083E
:1008900009EB084C4CEA41610B4343EA02710160E9
:1008A0002188090511D500E01FE0D4E9011241EAD1
:1008B0008211E268530809EB0342237C42EA036297
:1008C0001143227D41EA027101603B49C1F868B0E1
:1008D000FFF7E4FD804605E0FFF7E0FDA0EB080030
:1008E000022874D830680001F6D5EFB3DFF8C8806D
:1008F000C8F870A0FFF7D2FD304E0746843E04E0F2
:10090000FFF7CCFDC01B022861D83068C0438000CF
:10091000F6D521682A484A0701D5226B1AB1090782
:100920001DD5616BD9B90168D4E90623C1F3014132
:10093000491C42EA831221F0004309EB034194F879
:10094000243041EA03610A4302602968E26A6FF0D9
:10095000FF0321F4F85103EB02221143296021889F
:10096000C90514D5616D00E038E0B1F1006F0ED11A
:100970000168D4E9062342EA8312236AC1F30361C2
:100980005C0809EB044343EA01610A430260C8F8CA
:1009900070B0FFF783FD04461CE018E08C3802407D
:1009A00000700040400E4742001047429438024019
:1009B000FFFCFF0F0000FFFF0000474284380240A9
:1009C00088380240FFF76AFD001B022802D9032085
:1009D000BDE8F88F3068C0438000F3D40020F7E70B
:1009E0002DE9F0470E46050065D0DFF81481D8F8F0
:1009F0000000F7B200F00F00B04207D288F8007094
:100A0000D8F8000000F00F00B04254D128683D4CE7
:100A1000810712D5400703D5206840F4E0502060DC
:100A20002878000703D5206840F4604020602068E3
:100A3000A96820F0F000084320602878C0072DD076
:100A4000304968680839012812D0022813D00328D9
:100A500011D00968890700292DDA216821F00301E6
:100A600001432160FFF71AFD814641F2883A0EE00A
:100A700009688903EFE709688901ECE7FFF70EFDD4
:100A8000A0EB0901514502D90320BDE8F087206899
:100A9000696800F00C00B0EB810FEFD1D8F80010BE
:100AA000404601F00F01B14207D90770006800F01D
:100AB0000F00B04201D00120E7E72878400705D5B4
:100AC0002068E96820F4E050084320602878000797
:100AD00006D52068296920F4604040EAC100206002
:100AE00000F018F82168084AC1F30311515CC840AE
:100AF0000649086006480068FFF7F0FC0020C4E7DC
:100B0000003C024008380240581300080C00002046
:100B100004000020224810B5006810F00C022148A3
:100B200015D02149042A11D01D4C241F082A0FD0AA
:100B30000C2A0CD12268236802F03F025B0221D507
:100B40002068C0F38810A0FB010120E0084610BD1A
:100B50002268236802F03F025B0205D52068C0F3DB
:100B60008810A0FB010104E02168C1F38811A1FBFA
:100B700000010023FFF742FB2168C1F30141491C3A
:100B800049000AE02168C1F38811A1FB000100239C
:100B9000FFF734FB2168C1F30271B0FBF1F010BD27
:100BA000083802400024F40040787D012DE9F84F18
:100BB0000546DFF828B30078ABF10407C007A7F1BA
:100BC000040451D0DBF800105846C1F3810101291B
:100BD0000FD00168C1F38101022902D139684902AD
:100BE00007D40068C0F38100032809D138684002A7
:100BF00006D52068800337D56868002872D033E0B6
:100C00006868B0F5803F10D0B0F5A02F206810D0F4
:100C100020F480302060206820F480202060686804
:100C2000A8B1FFF73BFC06460DE0206840F4803099
:100C3000F4E740F480202060F7E700BFFFF72EFCC8
:100C4000801B642878D820688003F7D50CE0FFF774
:100C500025FC064605E000BFFFF720FC801B64284A
:100C6000F0D820688003F7D42878DFF874928007E2
:100C70004FF0000A46D5DBF80010584611F00C0F73
:100C80000FD00168C1F38101022902D139684902FC
:100C900007D50068C0F38100032809D138684002F5
:100CA00006D42068800715D5E86801281AD111E01C
:100CB000E868C0B10120C9F80000FFF7EFFB064665
:100CC00005E000BFFFF7EAFB801B0228BAD82068C6
:100CD0008007F7D52068296920F0F80040EAC100B4
:100CE00020600FE0F7E0C9F800A0FFF7D7FB064649
:100CF00005E000BFFFF7D2FB801B02281CD820684C
:100D00008007F7D42878000727D5DFF8D081754809
:100D1000696908F16C0881B101210160FFF7BEFB30
:100D2000064604E0FFF7BAFB801B022804D8D8F877
:100D300000008007F6D510E089E0C0F800A0FFF7BA
:100D4000ADFB064605E000BFFFF7A8FB801B0228AD
:100D50007DD8D8F800008007F6D42878400769D5F8
:100D60005E484FF0000838300068C0000BD45B4884
:100D70003830016841F08051016000684FF001088F
:100D800000F080500090584E3068C00511D4306893
:100D900040F480703060FFF781FB009006E000BFF8
:100DA000FFF77CFB0099401A022850D83068C00534
:100DB000F6D54A4EA868683601280FD00528306855
:100DC00010D020F001003060306820F00400306066
:100DD000A868B8B1FFF762FB00900FE0306840F000
:100DE0000100F4E740F004003060F7E7FFF756FB3E
:100DF0000099411A41F28830814264D830688007F6
:100E0000F4D50EE0FFF74AFB009007E0FFF746FB42
:100E10000099411A41F28830814254D830688007E5
:100E2000F4D4B8F1000F05D02C483830016821F017
:100E300080510160A869A8B3DBF80010C1F38101FB
:100E4000022948D00228C9F860A005D000E03AE0A5
:100E5000FFF724FB054639E0FFF720FB064604E0D8
:100E6000FFF71CFB801B02282DD820688001F7D4D7
:100E7000F5E907010843E9681C4A490802EB01410A
:100E8000AA6841EA82110843297C40EA0160297D71
:100E900040EA017038600120C9F86000FFF7FEFAEF
:100EA000054606E015E000BFFFF7F8FA401B0228F0
:100EB00009D820688001F7D50BE000BFFFF7EEFAF4
:100EC000401B022802D90320BDE8F88F206880016A
:100ED000F4D40020F8E70120F6E7000008380240CB
:100EE00000004742800E4742007000400000FFFFB4
:100EF00070B5040002D0607F10B106E0012070BD23
:100F000000202077204600F049F802206077216811
:100F1000CA204862216853204862204600F06CF9DC
:100F2000FF25042618BB206881681B4A1140816098
:100F30002168886862681043D4E904231A43104387
:100F400088602168E068086120680169228941EAB7
:100F5000024101612068C16821F08001C160206800
:100F60008068800607D4204600F024F818B1206875
:100F700045626677C2E72068016C21F48021016434
:100F80002068016CA2691143016420684562012058
:100F90006077002070BD0000BFFF8FFF006803492D
:100FA000884202D1024901200860704700280040B1
:100FB0003C0E474270B504460068C16821F0A001AC
:100FC000C160FFF76BFA05464FF47A7607E000BF81
:100FD000FFF764FA401BB04201D9032070BD2068BE
:100FE000C0688006F4D5002070BD70B5040005D03F
:100FF0000025A56294F8510010B106E0012070BDF3
:1010000084F85050204600F031F8022084F8510056
:101010002068016821F040010160D4E90101084322
:10102000D4E903121143084361690843218B01F499
:1010300000710843E1690843216A0843A16A084333
:1010400021680860A069042101EA1040616A084330
:10105000216848602068C16921F40061C16165654B
:10106000012084F85100002070BD00002DE9F041FE
:1010700086B0044614216846FFF7F8F81F49206837
:10108000884238D11E480025016841F48041016042
:10109000006800F48040059019481038016841F05C
:1010A00004010160016801F004010591016841F04B
:1010B000020101600068022400F002000094059023
:1010C00003260720CDE90360DFF8388069464046F3
:1010D000CDE90145FFF708F9042005278DE8F10067
:1010E00069464046FFF700F970028DE8F100694655
:1010F0000548FFF7F9F806B0BDE8F0810038004078
:1011000040380240000802400004024010B5401E72
:10111000B0F1807F01D3012010BD4FF0E024606169
:101120000F21601700F0DDF80020A061072020618A
:10113000002010BDFEE7000070B586B0142168469F
:10114000FFF794F81A480024016841F00401016097
:10115000016801F004010591016841F0020101609C
:10116000016801F002010591016841F0010101608F
:101170000068104E00F001004FF4805505900022E9
:1011800029463046FFF784F901200095CDE9010496
:10119000694630460394FFF7A7F8A8000090064878
:1011A000CDE9010469463046FFF79EF806B070BDF0
:1011B0003038024000040240000011100B480A4978
:1011C0004FF4802201604FF4827141600021816000
:1011D000C1600161C0E90512C161016241628162C1
:1011E0000A21C162FFF701BF003800403000002033
:1011F000FEE770477047000070B504460068C1689C
:10120000490614D44FF0FF31C160FFF747F9054696
:101210004FF47A7607E000BFFFF740F9401BB04279
:1012200001D9032070BD2068C0684006F4D50020B5
:1012300070BD70477047000010B5AAB0342117A8E0
:10124000FFF714F8142124A8FFF710F85C21684672
:10125000FFF70CF819480024016841F08051016043
:10126000006800F0805029901548016821F4404141
:1012700041F4804101600068102100F44040299051
:101280000A2017900120CDE91C04CDE91A01199418
:1012900017A8FFF78BFC0F20CDE924042694279490
:1012A000002124A82894FFF79BFB20200090000138
:1012B00010906846FFF77CF92AB010BD4038024014
:1012C000007000400548016841F470010160034965
:1012D0004FF00060803908607047000088ED00E042
:1012E000FEE70907090E002804DB00F1E02080F882
:1012F0000014704700F00F0000F1E02080F8141D8A
:10130000704702E008C8121F08C1002AFAD17047CE
:101310007047002001E001C1121F002AFBD1704775
:10132000FFF7C2F8FFF788FFFFF706FF09480849F3
:101330007F2201600021C0E90112FF22C0E90321E0
:1013400041618161FFF7D4FDFFF738FFFEE7000040
:1013500000280040100000200000000000000000F5
:101360000102030406070809881300080000002092
:10137000100000000213000898130008100000205D
:1013800078040000121300080100000010000000A3
:08139000000000000024F4003D
:04000005080001C529
:00000001FF
